:020000040800F2
:1000000000000220B9020008C1020008C502000871
:1000100035030008390300088103000800000000D0
:10002000000000000000000000000000C9030008FC
:10003000CD03000800000000D1030008D50300082C
:10004000E5030008E5030008E5030008E5030008F0
:10005000E5030008E5030008E5030008E5030008E0
:10006000E5030008E5030008E5030008E5030008D0
:10007000E5030008E5030008E5030008E5030008C0
:10008000E5030008E5030008E5030008E5030008B0
:10009000E5030008E5030008E5030008E5030008A0
:1000A000E5030008E5030008E5030008E503000890
:1000B000E5030008E5030008E5030008E503000880
:1000C000E5030008E5030008E5030008E503000870
:1000D000E5030008E5030008E5030008E503000860
:1000E000E5030008E5030008E5030008E503000850
:1000F000E5030008E5030008E5030008E503000840
:10010000E5030008E5030008E5030008E50300082F
:10011000E5030008E5030008E5030008E50300081F
:10012000E5030008E5030008E5030008E50300080F
:10013000E5030008E5030008E5030008E5030008FF
:10014000E5030008E5030008E5030008E5030008EF
:10015000E5030008E5030008E5030008E5030008DF
:10016000E5030008E5030008E5030008E5030008CF
:10017000E5030008E5030008E503000800000000AF
:10018000E5030008E503000800B583B001F0B6F808
:10019000384B394A1360394A136039490CE00A6810
:1001A0004B6801F10C04886803E01168196004339E
:1001B00004329842F9D82146324B9942EFD32E4B64
:1001C0001A68314B9A4204D12C4B1A682F4B9A4231
:1001D00000D0FEE7274B2E4A13602E4A13602E4BA9
:1001E0000AE0194651F8082B5B6802E00020106015
:1001F00004329342FAD80B46284A9342F1D3244B57
:100200001B6813B9234B1B6803B1FEE702F09AFF8A
:1002100001A8694601F000F8214B224DED1AAD10FE
:10022000002404E01E4B53F8243098470134A542C3
:10023000F8DC1D4B1D4DED1AAD10002404E01A4BE7
:1002400053F8243098470134A542F8DC019800990E
:1002500002F082FF0546164B164CE41AA41004E087
:10026000013C134B53F824309847002CF8DC284607
:1002700000F0A4FFBABADECA00000020B4000020DB
:10028000E8030008000400087856341232547698C7
:10029000B80000201C020020000400081004000820
:1002A00010040008100400081004000810040008DE
:1002B000100400081004000808B5FFF765FF00BF30
:1002C00000BEFEE71EF0040F0CBFEFF30880EFF353
:1002D00009807146404A10472DE9F04383B0054636
:1002E0008946124C676BA66BD4F82880236B13F0F9
:1002F000020F0BD0E36A002B08DA4BF6AB6101F07A
:1003000079F818B14FF00042E2620CE0084800F0C2
:1003100097FFCDF80090284641463A46334600F014
:10032000F1FF00BEFEE703B0BDE8F08300ED00E0A2
:10033000583D000800BEFEE71EF0040F0CBFEFF3AF
:100340000880EFF309807146244A10472DE9F041F7
:1003500082B007468846084C666BA56BA46A0748BE
:1003600000F06EFFCDF800803846214632462B461D
:1003700000F0C8FF00BEFEE700ED00E0683D0008A9
:100380001EF0040F0CBFEFF30880EFF309807146F5
:10039000134A10472DE9F04182B007468846084CC1
:1003A000666BA56BA46A074800F04AFFCDF8008091
:1003B0003846214632462B4600F0A4FF00BEFEE739
:1003C00000ED00E0743D000800BEFEE700BEFEE761
:1003D00000BEFEE770470000D90200084D03000888
:0803E0009503000800BEFEE7D2
:1003E800D43D000800000020B8000020D43D0008DB
:1003F8000000001000000010B800002020020020BB
:080408000000001000000010CC
:10041000704700BF10B5044600F0B4FE064BA3FBC6
:100420000020800900F08AF84FF0FF3021460022BA
:1004300000F042F8002010BDD34D621008B50B4B00
:100440001A6842F400721A601A6842F480621A60F4
:100450001A6842F480721A60032000F00FF80F202F
:10046000FFF7D8FFFFF7D4FF002008BD003C024093
:10047000014B1868704700BFBC00002010B504464F
:10048000C31E042B03D90A48A42100F0CDFE04F0BA
:100490000704084BD86820F4E0600004000C40EA30
:1004A000042040F0BF6040F40030D86010BD00BFB1
:1004B000EC3A000800ED00E070B506460D46144623
:1004C0000F2A03D91A48BC2100F0AEFE0F2D03D924
:1004D0001748BD2100F0A8FE164BDB68C3F30223CA
:1004E000C3F10701042928BF04211A1D062A01D9D6
:1004F000033B00E00023012202FA01F101390D4023
:100500009D4002FA03F3013B1C402C43002E06DA07
:1005100006F00F062401E4B2074B9C5570BD240180
:10052000E4B206F1604000F5614080F8004370BD20
:10053000EC3A000800ED00E014ED00E00138B0F105
:10054000807F0AD2064B5860F021064A82F82310B9
:100550000020986007221A6070470120704700BF92
:1005600010E000E000ED00E010B50446042805D0DE
:1005700020B109484FF4C27100F056FE042C05D199
:10058000064B1A6842F004021A6010BD034B1A6849
:1005900022F004021A6010BDEC3A000810E000E0FE
:1005A0002DE9F04F83B007460D46A14B984223D06A
:1005B00003F5806398421FD003F5806398421BD0F7
:1005C00003F58063984217D003F58063984213D0F7
:1005D00003F5806398420FD003F5806398420BD0F7
:1005E00003F58063984207D003F58063984203D0F7
:1005F0009048C52100F018FE2B881BB98D48C621F4
:1006000000F012FE6B68012B22D9112B20D0022B97
:100610001ED0122B1CD0884A934219D002F58012AA
:10062000934215D002F58012934211D0A2F5F81230
:1006300093420DD002F58012934209D002F5801248
:10064000934205D0032B03D07A48C72100F0ECFD7C
:10065000AB68022B03D97748C82100F0E5FD0024E0
:1006600027E1A1460126A6402B6803EA0608B0450B
:1006700040F01E816B68022B01D0122B4BD12B69ED
:10068000C3B3092B36D0ABB3A3B39BB393B3012B46
:1006900030D02FD0022B2DD02CD02BD0032B29D013
:1006A000042B27D026D025D0052B23D022D0092BF0
:1006B00020D0062B1ED0092B1CD0072B1AD019D006
:1006C00018D0082B16D015D014D0092B12D011D069
:1006D0000A2B0FD00ED00B2B0CD00C2B0AD009D02C
:1006E0000D2B07D00C2B05D00F2B03D05148D9214F
:1006F00000F09AFDE308083357F8231004F00702CE
:1007000092000F20904021EA0000296901FA02F2CC
:10071000024347F823203A684FEA440A4FF0030B9C
:100720000BFA0AFB6FEA0B0B0BEA02026B6803F091
:10073000030303FA0AF313433B606B685A1E012A52
:1007400003D9112B01D0122B19D1EB68032B03D93C
:100750003848EC2100F068FDBA680BEA0202EB6849
:1007600003FA0AF31343BB607B6823EA06066B684F
:10077000C3F3001303FA09F949EA06067E60FB6831
:100780000BEA030BAB6803FA0AF343EA0B03FB60C3
:100790006B6813F0805F00F08B80284B5A6C42F43A
:1007A00080425A645B6C03F480430193019BA3086D
:1007B000991C234A52F8210004F0030292000F21F1
:1007C000914020EA01011A4887423BD000F5806041
:1007D00087422BD000F58060874225D000F58060ED
:1007E00087421FD000F58060874219D000F58060F5
:1007F000874213D000F5806087420DD000F58060FD
:10080000874207D000F58060874201D108201AE0B6
:10081000092018E0072016E0062014E0052012E069
:10082000042010E003200EE002200CE001200AE08A
:1008300000000240203B0008000011100038024078
:1008400000380140002000FA02F20A4302331C493A
:1008500041F823201B4B1A686FEA080303EA0201E0
:10086000686810F4803F01D048EA0201154A11601F
:10087000526803EA0201686810F4003F01D048EAB8
:100880000201104A5160926803EA0201686810F49C
:10089000801F01D048EA02010A4A9160D2681340E1
:1008A000696811F4001F01D048EA0203054AD360C9
:1008B00001340F2C7FF6D5AE03B0BDE8F08F00BF3A
:1008C00000380140003C014030B583B00446036865
:1008D0000F2B04D9AA4840F2171100F0A5FC236899
:1008E00013F0010F5FD06368012B06D9052B04D0EC
:1008F000A3484FF48E7100F097FCA24B9B6803F065
:100900000C03042B0AD09F4B9B6803F00C03082BAD
:100910000DD19C4B5B6813F4800F08D0994B1B687A
:1009200013F4003F3FD06368002B3CD1FAE1002272
:10093000954B1A70FFF79CFD054607E0FFF798FD01
:10094000401B41F28833984200F2EE818D4B1B68C8
:1009500013F4003FF2D122798B4B1A7063688BB18C
:10096000FFF786FD054607E0FFF782FD401B41F2D9
:100970008833984200F2DA81824B1B6813F4003FFF
:10098000F2D010E0FFF774FD054607E0FFF770FDB9
:10099000401B41F28833984200F2CA81794B1B68B0
:1009A00013F4003FF2D1236813F0020F6CD0E36818
:1009B000012B04D9724840F25D1100F035FC236927
:1009C0001F2B04D96E484FF4AF7100F02DFC6D4B16
:1009D0009B6813F00C0F0AD06A4B9B6803F00C0362
:1009E000082B1CD1674B5B6813F4800F17D1654B44
:1009F0001B6813F0020F03D0E368012B40F09A81CB
:100A0000604B196821F0F8012269F82090FAA0F0F3
:100A1000B0FA80F0C0B282400A431A6034E0E36862
:100A200003B30122594B1A60FFF722FD054605E08A
:100A3000FFF71EFD401B642800F27E81514B1B68AE
:100A400013F0020FF4D04F4B196821F0F80122691E
:100A5000F82090FAA0F0B0FA80F0C0B282400A43C9
:100A60001A6011E00022494B1A60FFF701FD0546AC
:100A700005E0FFF7FDFC401B642800F25F81414B5D
:100A80001B6813F0020FF4D1236813F0080F2ED067
:100A90006369012B04D93A484FF4CF7100F0C4FBCD
:100AA000636993B101223A4B1A60FFF7E1FC0546F6
:100AB00005E0FFF7DDFC401B642800F24181314B6B
:100AC0005B6F13F0020FF4D011E00022304B1A607C
:100AD000FFF7CEFC054605E0FFF7CAFC401B642883
:100AE00000F23081274B5B6F13F0020FF4D12368C3
:100AF00013F0040F71D0A368012B06D9052B04D085
:100B00001F484FF4E47100F08FFB1E4B1A6C42F04B
:100B100080521A641B6C03F080530193019B1D4BA0
:100B20001A6842F480721A60FFF7A2FC054605E0DD
:100B3000FFF79EFC401B642800F20681154B1B68E2
:100B400013F4807FF4D00022134B1A70FFF790FC4F
:100B5000054607E0FFF78CFC401B41F288339842C2
:100B600000F2F480074B1B6F13F0020FF2D1227AD0
:100B7000094B1A70A368FBB1FFF77AFC054615E034
:100B8000603B000800380240023802400000474243
:100B9000800E47420070004070380240FFF768FC4A
:100BA000401B41F28833984200F2D280704B1B6F99
:100BB00013F0020FF2D010E0FFF75AFC054607E0F1
:100BC000FFF756FC401B41F28833984200F2C28086
:100BD000674B1B6F13F0020FF2D1A369022B04D9EC
:100BE00064484FF4037100F01FFBA369002B00F071
:100BF000B3805F4A926802F00C02082A00F0AE80CF
:100C0000022B7CD1E3693BB1B3F5800F04D0594886
:100C100040F2152100F008FB236A3F2B04D9554808
:100C200040F2162100F000FB636AC03BF02B04D9B0
:100C3000504840F2172100F0F7FAA36A022B0AD0BD
:100C4000042B08D0062B06D0082B04D049484FF4BB
:100C5000067100F0E9FAE36A043B0B2B04D945481E
:100C600040F2192100F0E0FA0022434B1A60FFF72E
:100C7000FFFB054604E0FFF7FBFB401B64286FD831
:100C80003B4B1B6813F0007FF5D1E269236A1A43DE
:100C9000636A47F6C07191FAA1F1B1FA81F1C9B264
:100CA0008B401A43A36A5B08591E4FF4403393FAF2
:100CB000A3F3B3FA83F3DBB201FA03F31A43E16A55
:100CC0004FF0706393FAA3F3B3FA83F3DBB201FA44
:100CD00003F31A43264B5A600122274B1A60FFF791
:100CE000C7FB044604E0FFF7C3FB001B642839D8A8
:100CF0001F4B1B6813F0007FF5D0002035E0002269
:100D00001D4B1A60FFF7B4FB044604E0FFF7B0FB8D
:100D1000001B642828D8164B1B6813F0007FF5D100
:100D2000002022E0012020E003201EE003201CE040
:100D300003201AE0012018E0032016E0032014E04D
:100D4000032012E0032010E003200EE003200CE05B
:100D500003200AE0032008E0002006E0012004E070
:100D6000032002E0032000E0032003B030BD00BFF9
:100D700000380240603B00086000474270B50446FE
:100D80000D460368013B0E2B04D995484FF41F71A3
:100D900000F04AFA072D04D9914840F27D2100F075
:100DA00043FA904B1B6803F00F03AB4280F098802E
:100DB000EAB28C4B1A701B6803F00F03AB4240F091
:100DC0006B81236813F0020F1DD0A368A3B1802BA1
:100DD00012D0902B10D0A02B0ED0B02B0CD0C02B4B
:100DE0000AD0D02B08D0E02B06D0F02B04D07C48C2
:100DF00040F2932100F018FA7B4B996821F0F00142
:100E0000A2680A439A60236813F0010F00F0028180
:100E10006368032B04D9724840F29A2100F004FA67
:100E20006368012B05D1704A126812F4003F0FD19C
:100E300034E19A1E012A05D86B4A126812F0007F2D
:100E400006D12DE1684A126812F0020F00F02A81E3
:100E5000654A916821F003010B439360FFF708FB9B
:100E600005466368012B0FD107E0FFF701FB401B2C
:100E700041F28833984200F217815B4B9B6803F084
:100E80000C03042BF1D1C5E0022B0FD107E0FFF7D3
:100E9000EFFA401B41F28833984200F20781524B2F
:100EA0009B6803F00C03082BF1D1B3E0032B11D1A5
:100EB0004D4B9B68FFF7DCFA401B41F288339842A8
:100EC000F6D9F5E0FFF7D4FA401B41F28833984297
:100ED00000F2F080444B9B6813F00C0FF2D199E0C4
:100EE000236813F0020F1DD0A368A3B1802B12D08A
:100EF000902B10D0A02B0ED0B02B0CD0C02B0AD032
:100F0000D02B08D0E02B06D0F02B04D0344840F290
:100F1000ED2100F089F9344B996821F0F001A268C5
:100F20000A439A60236813F0010F6BD06368032BA8
:100F300004D92B484FF43D7100F076F96368012B1A
:100F400005D1294A126812F4003F0FD1B4E09A1E6D
:100F5000012A05D8244A126812F0007F06D1ADE0BC
:100F6000214A126812F0020F00F0AA801E4A91680E
:100F700021F003010B439360FFF77AFA064663689A
:100F8000012B0FD107E0FFF773FA801B41F2883382
:100F9000984200F29780144B9B6803F00C03042BDB
:100FA000F1D12FE0022B0FD107E0FFF761FA801B90
:100FB00041F28833984200F287800B4B9B6803F024
:100FC0000C03082BF1D11DE0032B16D1064B9B68B7
:100FD000FFF74EFA801B41F288339842F6D975E04C
:100FE000603B0008003C024000380240FFF740FA36
:100FF000801B41F2883398426AD8374B9B6813F0C4
:101000000C0FF3D1EAB2354B1A701B6803F00F03D3
:10101000AB425FD1236813F0040F19D0E36883B1AA
:10102000B3F5805F0DD0B3F5A05F0AD0B3F5C05F14
:1010300007D0B3F5E05F04D0294840F24E3100F00C
:10104000F3F8254B996821F4E051E2680A439A606D
:10105000236813F0080F1AD0236983B1B3F5805FBA
:101060000DD0B3F5A05F0AD0B3F5C05F07D0B3F5DC
:10107000E05F04D01A4840F2553100F0D5F8164B25
:101080009A6822F46042216942EAC1029A600F2004
:10109000FFF7C0F9002070BD012070BD012070BDB8
:1010A000012070BD012070BD032070BD032070BD04
:1010B000032070BD032070BD012070BD012070BDF4
:1010C000012070BD032070BD032070BD032070BDE2
:1010D000032070BD012070BD00380240003C02407A
:1010E000603B0008244B9B6803F00C03042B40D0AA
:1010F000082B01D0214870471F4B586800F03F0073
:101100005B6813F4800F11D01D4BB3FBF0F01A4B4A
:101110005A6847F6C0731A4093FAA3F3B3FA83F3FD
:10112000DBB222FA03F303FB00F010E0134BB3FB36
:10113000F0F0114B5A6847F6C0731A4093FAA3F3C4
:10114000B3FA83F3DBB222FA03F303FB00F00A4B9A
:101150005A6802F440324FF4403393FAA3F3B3FADF
:1011600083F3DBB222FA03F301335B00B0FBF3F04D
:1011700070470348704700BF003802400024F40065
:1011800000127A0008B5FFF7ADFF094B9A6802F02C
:10119000F002F02393FAA3F3B3FA83F3DBB222FA5B
:1011A00003F3044AD35CD840034B186008BD00BF6A
:1011B00000380240503B00081C000020FEE700BF42
:1011C00008B5034800F056F80120FFF7F7FF00BF0D
:1011D000903B000808B50D4B1B6813B90C4A0B4B2C
:1011E0001A600A4B1B68033020F003001844094AB8
:1011F000904206D902F052F80C2303604FF0FF3002
:1012000008BD024A1060184608BD00BFC00000209B
:101210002002002000FC012001230360014B0B6031
:10122000704700BF0400002008B503460A46034883
:10123000194600F005F8FFF7C3FF00BFE43B0008C4
:101240000FB400B583B004AB53F8042B01930848E6
:10125000802102F05BF8011E03DD054800F04AF82A
:101260000146084603B05DF804EB04B0704700BFC8
:10127000C800002010B5044602F016F801462046CA
:1012800000F038F80248012100F034F810BD00BF2A
:10129000D43C00082DE9F04385B004468846435C01
:1012A0000BBB042528462146ABBE04461EE0102F8A
:1012B00034BF3E461026002306E014F8015B04AA62
:1012C0001A4402F8105C0133B342F6D304AA134463
:1012D000002203F8102CE946042528464946ABBEF7
:1012E0000546BF1B00E00F46002FE0D1404605B089
:1012F000BDE8F08308B5FFF7CDFF08BD08B500F0E5
:1013000089F808BDF8B504460D4617461E4626481E
:10131000FFF796FF25482168FFF792FF2448616890
:10132000FFF78EFF2348A168FFF78AFF2248E16894
:10133000FFF786FF21482169FFF782FF2048616996
:10134000FFF77EFF1F48A169FFF77AFF1E48E1699A
:10135000FFF776FF1D48FFF773FF1D482946FFF78B
:101360006FFF1C4CE16A1C48FFF76AFF216B1B48AA
:10137000FFF766FFE16B1A48FFF762FF15F0800F79
:1013800003D018483946FFF75BFF15F4004F03D030
:1013900015483146FFF754FF1448FFF751FF144832
:1013A0000699FFF74DFFF8BD3C3C00084C3C000897
:1013B0005C3C00086C3C00087C3C00088C3C00084D
:1013C0009C3C0008AC3C0008BC3C0008CC3C00083D
:1013D000D83C000800ED00E0E83C0008F83C0008BC
:1013E000083D0008183D0008283D0008383D000869
:1013F000403D000883691A888A4207D10268033A8F
:10140000012A05D80233836101207047002070470C
:10141000002070470C4B1A6842F001021A6000214C
:1014200099601A6822F0847222F480321A60074AA6
:101430005A601A6822F480221A60D9604FF0006264
:10144000034B9A60704700BF003802401030002400
:1014500000ED00E0234B9B6803F00C03042B07D046
:10146000082B09D0002B2DD11F4A204B1A602CE0ED
:101470001F4A1E4B1A6028E01A4B59685B6803F03C
:101480003F0311F4800F09D0194AB2FBF3F3154A58
:101490005268C2F3881202FB03F208E0124AB2FB60
:1014A000F3F3104A5268C2F3881202FB03F20D4BA9
:1014B0005B68C3F3014301335B00B2FBF3F20B4BF8
:1014C0001A6002E0084A094B1A60064B9B68C3F396
:1014D0000313084AD15CC9B2044B1A68CA401A60A7
:1014E000704700BF003802400024F4001C000020B8
:1014F00000127A000C00002040F20002C4F2020246
:10150000116821F00C011160116841F004011160B3
:10151000516821F002015160916821F00C01916045
:10152000916841F008019160D16821F00C01D1600F
:10153000D16841F00401D16040F20042C4F20202DD
:10154000116821F003011160116841F0010111607F
:10155000516821F001015160916821F0030191600F
:10156000916841F002019160D16821F00301D160DE
:10157000D16841F00101D16040F20042C4F20202A0
:10158000116821F00C011160116841F00401116033
:10159000516821F002015160916821F00C019160C5
:1015A000916841F008019160D16821F00C01D1608F
:1015B000D16841F00401D16040F20042C4F202025D
:1015C000116821F440611160116841F4806111607B
:1015D000516821F020015160916821F440619160CF
:1015E000916841F400619160D16821F44061D1605B
:1015F000D16841F48061D16040F20042C4F202023D
:10160000116821F440011160116841F480011160FA
:10161000516821F400615160916821F440019160AA
:10162000916841F400019160D16821F44001D160DA
:10163000D16841F48001D16040F60002C4F2020298
:10164000116821F030011160116841F01001116042
:10165000516821F004015160916821F030019160DE
:10166000916841F020019160D16821F03001D16092
:10167000D16841F01001D16040F60002C4F20202CC
:10168000116821F440711160116841F4807111609A
:10169000516821F010015160916821F4407191600E
:1016A000916841F400719160D16821F44071D1607A
:1016B000D16841F48071D16040F60002C4F20202A8
:1016C000116821F440611160116841F4806111607A
:1016D000516821F020015160916821F440619160CE
:1016E000916841F400619160D16821F44061D1605A
:1016F000D16841F48061D16040F60042C4F2020238
:10170000116821F030011160116841F01001116081
:10171000516821F004015160916821F0300191601D
:10172000916841F020019160D16821F03001D160D1
:10173000D16841F01001D16040F60002C4F202020B
:10174000116821F440011160116841F480011160B9
:10175000516821F400615160916821F44001916069
:10176000916841F400019160D16821F44001D16099
:10177000D16841F48001D16040F60002C4F2020257
:10178000116821F00C011160116841F00401116031
:10179000516821F002015160916821F00C019160C3
:1017A000916841F008019160D16821F00C01D1608D
:1017B000D16841F00401D16040F20042C4F202025B
:1017C000116821F440711160116841F48071116059
:1017D000516821F010015160916821F440719160CD
:1017E000916841F400719160D16821F44071D16039
:1017F000D16841F48071D16040F20002C4F202026B
:10180000116821F040411160916821F040419160E0
:10181000916841F000419160D16821F04041D16070
:10182000D16841F08041D16040F60002C4F202026A
:10183000116821F440311160916821F440319160C8
:10184000916841F400319160D16821F44031D16058
:10185000D16841F48031D160704702B440F2004257
:10186000C4F202024FF01001916140F60002C4F28E
:1018700002024FF002019161DFE810F01000580001
:101880009F00E6002D017401BB0102024902900293
:10189000D7021E036503AC03F3033A0440F60002CB
:1018A000C4F202024FF40011916140F20042C4F20E
:1018B00002024FF40031916140F20002C4F20202D0
:1018C0004FF40031916140F20042C4F202024FF441
:1018D0000011916140F20042C4F202024FF0006137
:1018E000916140F60002C4F202024FF4802191613E
:1018F00040F60002C4F202024FF01001916140F282
:101900000042C4F202024FF00101916140F6004230
:10191000C4F202024FF48021916140F60042C4F209
:1019200002024FF00401916100F029BC40F6000270
:10193000C4F202024FF02001916140F20042C4F271
:1019400002024FF40031916140F20002C4F202023F
:101950004FF40031916140F20042C4F202024FF0B4
:101960002001916140F20042C4F202024FF4006192
:10197000916140F60002C4F202024FF0040191614D
:1019800040F60002C4F202024FF01001916140F2F1
:101990000042C4F202024FF00101916140F60042A0
:1019A000C4F202024FF48021916140F60042C4F279
:1019B00002024FF004019161E1E340F60002C4F23B
:1019C00002024FF40011916140F20042C4F202029F
:1019D0004FF40031916140F20002C4F202024FF074
:1019E0000201916140F20042C4F202024FF4001180
:1019F000916140F20042C4F202024FF00061916135
:101A000040F60002C4F202024FF00401916140F678
:101A10000002C4F202024FF48011916140F20042D0
:101A2000C4F202024FF00101916140F60042C4F29B
:101A300002024FF48021916140F60042C4F202029A
:101A40004FF0040191619AE340F60002C4F20202F1
:101A50004FF40011916140F20042C4F202024FF4CF
:101A60000031916140F20002C4F202024FF40031F1
:101A7000916140F20042C4F202024FF40011916100
:101A800040F20042C4F202024FF40061916140F65C
:101A90000002C4F202024FF00401916140F600021C
:101AA000C4F202024FF48011916140F20042C4F28C
:101AB00002024FF00101916140F60042C4F20202BD
:101AC0004FF48021916140F60042C4F202024FF0CF
:101AD0000401916153E340F60002C4F202024FF0A8
:101AE0002001916140F20042C4F202024FF4003141
:101AF000916140F20002C4F202024FF400319161A0
:101B000040F20042C4F202024FF02001916140F223
:101B10000042C4F202024FF40061916140F60002FB
:101B2000C4F202024FF48021916140F60002C4F237
:101B300002024FF48011916140F20042C4F20202AD
:101B40004FF00101916140F60042C4F202024FF4ED
:101B50008021916140F60042C4F202024FF004017C
:101B600091610CE340F60002C4F202024FF400114E
:101B7000916140F20042C4F202024FF00201916111
:101B800040F20002C4F202024FF40031916140F2CF
:101B90000042C4F202024FF40011916140F200428F
:101BA000C4F202024FF40061916140F60002C4F2F7
:101BB00002024FF48021916140F60002C4F2020259
:101BC0004FF48011916140F20042C4F202024FF0E2
:101BD0000101916140F60042C4F202024FF48021FB
:101BE000916140F60042C4F202024FF0040191619B
:101BF000C5E240F60002C4F202024FF40011916106
:101C000040F20042C4F202024FF00201916140F240
:101C10000002C4F202024FF40031916140F200422E
:101C2000C4F202024FF40011916140F20042C4F28A
:101C300002024FF00061916140F60002C4F202021C
:101C40004FF48021916140F60002C4F202024FF489
:101C50008011916140F20042C4F202024FF0010192
:101C6000916140F60042C4F202024FF4802191617A
:101C700040F60042C4F202024FF0040191617EE29C
:101C800040F60002C4F202024FF40011916140F2EA
:101C90000042C4F202024FF40031916140F20002AE
:101CA000C4F202024FF40031916140F20042C4F2EA
:101CB00002024FF02001916140F20042C4F20202A0
:101CC0004FF40061916140F60002C4F202024FF04D
:101CD0000401916140F60002C4F202024FF01001CB
:101CE000916140F20042C4F202024FF001019161A1
:101CF00040F60042C4F202024FF48021916140F6A6
:101D00000042C4F202024FF00401916137E240F652
:101D10000002C4F202024FF40011916140F200424D
:101D2000C4F202024FF40031916140F20002C4F2A9
:101D300002024FF40031916140F20042C4F202020B
:101D40004FF40011916140F20042C4F202024FF0E0
:101D50000061916140F60002C4F202024FF480215A
:101D6000916140F60002C4F202024FF480119161C9
:101D700040F20042C4F202024FF00101916140F6CC
:101D80000042C4F202024FF48021916140F6004209
:101D9000C4F202024FF004019161F0E140F600024A
:101DA000C4F202024FF40011916140F20042C4F209
:101DB00002024FF40031916140F20002C4F20202CB
:101DC0004FF40031916140F20042C4F202024FF040
:101DD0002001916140F20042C4F202024FF400611E
:101DE000916140F60002C4F202024FF48021916139
:101DF00040F60002C4F202024FF48011916140F2F9
:101E00000042C4F202024FF00101916140F600422B
:101E1000C4F202024FF48021916140F60042C4F204
:101E200002024FF004019161A9E140F60002C4F200
:101E300002024FF40011916140F20042C4F202022A
:101E40004FF40031916140F20002C4F202024FF4FB
:101E50000031916140F20042C4F202024FF02001D1
:101E6000916140F20042C4F202024FF000619161C0
:101E700040F60002C4F202024FF48021916140F664
:101E80000002C4F202024FF48011916140F200425C
:101E9000C4F202024FF00101916140F60042C4F227
:101EA00002024FF48021916140F60042C4F2020226
:101EB0004FF00401916162E140F60002C4F20202B7
:101EC0004FF02001916140F20042C4F202024FF053
:101ED0000201916140F20002C4F202024FF40031AB
:101EE000916140F20042C4F202024FF4001191618C
:101EF00040F20042C4F202024FF00061916140F6EC
:101F00000002C4F202024FF48021916140F6000207
:101F1000C4F202024FF48011916140F20042C4F217
:101F200002024FF00101916140F60042C4F2020248
:101F30004FF48021916140F60042C4F202024FF05A
:101F4000040191611BE140F60002C4F202024FF469
:101F50000011916140F20042C4F202024FF002010E
:101F6000916140F20002C4F202024FF0020191615D
:101F700040F20042C4F202024FF40011916140F2BB
:101F80000042C4F202024FF00061916140F600028B
:101F9000C4F202024FF48021916140F60002C4F2C3
:101FA00002024FF01001916140F20042C4F20202BD
:101FB0004FF00101916140F60042C4F202024FF479
:101FC0008021916140F60042C4F202024FF0040108
:101FD0009161D4E040F60002C4F202024FF0200109
:101FE000916140F20042C4F202024FF4003191616B
:101FF00040F20002C4F202024FF40031916140F25B
:102000000042C4F202024FF40011916140F200421A
:10201000C4F202024FF00061916140F60002C4F286
:1020200002024FF00401916140F60002C4F2020284
:102030004FF48011916140F20042C4F202024FF06D
:102040000101916140F60042C4F202024FF4802186
:10205000916140F60042C4F202024FF00401916126
:102060008DE040F60002C4F202024FF400119161CB
:1020700040F20042C4F202024FF00201916140F2CC
:102080000002C4F202024FF00201916140F20042EC
:10209000C4F202024FF40011916140F20042C4F216
:1020A00002024FF00061916140F60002C4F20202A8
:1020B0004FF48021916140F60002C4F202024FF415
:1020C0008011916140F20042C4F202024FF001011E
:1020D000916140F60042C4F202024FF48021916106
:1020E00040F60042C4F202024FF00401916146E062
:1020F00040F60002C4F202024FF40011916140F276
:102100000042C4F202024FF00201916140F200026B
:10211000C4F202024FF00201916140F20042C4F2A7
:1021200002024FF02001916140F20042C4F202022B
:102130004FF00061916140F60002C4F202024FF4D8
:102140008021916140F60002C4F202024FF4801136
:10215000916140F20042C4F202024FF0010191612C
:1021600040F60042C4F202024FF48021916140F631
:102170000042C4F202024FF004019161FFE702BC89
:10218000DFE811F005004C009300DA00210140F275
:102190000042C4F202024FF02001916140F200427D
:1021A000C4F202024FF40061916140F20042C4F2B5
:1021B00002024FF00101916140F20042C4F20202BA
:1021C0004FF00201916140F60002C4F202024FF0AA
:1021D0001001916140F20002C4F202024FF00201CC
:1021E000916140F60002C4F202024FF004019161D5
:1021F00040F60002C4F202024FF40011916140F671
:102200000002C4F202024FF00061916140F6000248
:10221000C4F202024FF4006191611BE140F20042FE
:10222000C4F202024FF02001916140F20042C4F278
:1022300002024FF40061916140F20042C4F20202D6
:102240004FF00101916140F20042C4F202024FF0EE
:102250000201916140F60002C4F202024FF0100147
:10226000916140F20002C4F202024FF0020191615A
:1022700040F60002C4F202024FF48021916140F660
:102280000002C4F202024FF02001916140F6000208
:10229000C4F202024FF00061916140F60002C4F204
:1022A00002024FF400619161D4E040F20042C4F2B6
:1022B00002024FF02001916140F20042C4F202029A
:1022C0004FF40061916140F20042C4F202024FF00B
:1022D0000101916140F20042C4F202024FF002019A
:1022E000916140F60002C4F202024FF010019161C8
:1022F00040F20002C4F202024FF40031916140F654
:102300000002C4F202024FF00401916140F60002A3
:10231000C4F202024FF02001916140F60002C4F2C3
:1023200002024FF00061916140F60002C4F2020225
:102330004FF4006191618DE040F20042C4F202026C
:102340004FF02001916140F20042C4F202024FF4CA
:102350000061916140F20042C4F202024FF00101BB
:10236000916140F20042C4F202024FF00201916119
:1023700040F60002C4F202024FF48011916140F273
:102380000002C4F202024FF00201916140F6000225
:10239000C4F202024FF00401916140F60002C4F25F
:1023A00002024FF02001916140F60002C4F20202E5
:1023B0004FF00061916140F60002C4F202024FF456
:1023C0000061916146E040F20042C4F202024FF027
:1023D0002001916140F20042C4F202024FF4006118
:1023E000916140F20042C4F202024FF0010191619A
:1023F00040F20042C4F202024FF40031916140F613
:102400000002C4F202024FF01001916140F200029A
:10241000C4F202024FF00201916140F60002C4F2E0
:1024200002024FF00401916140F60002C4F2020280
:102430004FF02001916140F60002C4F202024FF019
:102440000061916140F60002C4F202024FF40061A3
:102450009161FFE740F60002C4F202024FF400313E
:10246000916140F20042C4F202024FF48011916186
:10247000704740F60002C4F202024FF0020191617F
:1024800040F20042C4F202024FF010019161DFE815
:1024900010F00D007300D9003E01A30108026D0287
:1024A000D20237039C0301046604CB0440F6000209
:1024B000C4F202024FF02001916140F20042C4F2E6
:1024C00002024FF00201916140F20002C4F20202E6
:1024D0004FF00201916140F20042C4F202024FF457
:1024E0000011916140F20042C4F202024FF4006117
:1024F000916140F60002C4F202024FF004019161C2
:1025000040F60002C4F202024FF01001916140F265
:102510000042C4F202024FF00101916140F6004214
:10252000C4F202024FF48021916140F60042C4F2ED
:1025300002024FF00401916140F60002C4F202026F
:102540004FF40031916140F20042C4F202024FF4B4
:102550000011916140F20002C4F20202106910F40D
:1025600000404FEAD03040F20042C4F202024FF085
:102570002001916100F0BDBC40F60002C4F20202ED
:102580004FF02001916140F20042C4F202024FF08C
:102590000201916140F20002C4F202024FF0020116
:1025A000916140F20042C4F202024FF400119161C5
:1025B00040F20042C4F202024FF40061916140F621
:1025C0000002C4F202024FF00401916140F60002E1
:1025D000C4F202024FF01001916140F20042C4F2D5
:1025E00002024FF00101916140F60042C4F2020282
:1025F0004FF48021916140F60042C4F202024FF094
:102600000401916140F60002C4F202024FF400316D
:10261000916140F20042C4F202024FF40011916154
:1026200040F60002C4F20202106910F480704FEA12
:10263000102040F20042C4F202024FF020019161EA
:1026400000F057BC40F60002C4F202024FF0200135
:10265000916140F20042C4F202024FF00201916126
:1026600040F20002C4F202024FF00201916140F216
:102670000042C4F202024FF02001916140F2004298
:10268000C4F202024FF00061916140F60002C4F210
:1026900002024FF00401916140F60002C4F202020E
:1026A0004FF01001916140F20042C4F202024FF07B
:1026B0000101916140F60042C4F202024FF4802110
:1026C000916140F60042C4F202024FF004019161B0
:1026D00040F60002C4F202024FF40031916140F270
:1026E0000042C4F202024FF00061916140F2000228
:1026F000C4F20202106910F400404FEAD03040F2F8
:102700000042C4F202024FF400619161F1E340F62D
:102710000002C4F202024FF02001916140F2004237
:10272000C4F202024FF00201916140F20002C4F2D1
:1027300002024FF00201916140F20042C4F2020233
:102740004FF02001916140F20042C4F202024FF0CA
:102750000061916140F60002C4F202024FF00401F0
:10276000916140F60002C4F202024FF01001916143
:1027700040F20042C4F202024FF00101916140F6C2
:102780000042C4F202024FF48021916140F60042FF
:10279000C4F202024FF00401916140F60002C4F25B
:1027A00002024FF40031916140F20042C4F2020291
:1027B0004FF00061916140F60002C4F2020210691C
:1027C00010F480704FEA102040F20042C4F202027E
:1027D0004FF4006191618CE340F60002C4F2020202
:1027E0004FF02001916140F20042C4F202024FF02A
:1027F0000201916140F20002C4F202024FF00201B4
:10280000916140F20042C4F202024FF02001916156
:1028100040F20042C4F202024FF40061916140F6BE
:102820000002C4F202024FF00401916140F600027E
:10283000C4F202024FF01001916140F20042C4F272
:1028400002024FF48031916140F60042C4F202026C
:102850004FF48021916140F60042C4F202024FF031
:102860000401916140F60002C4F202024FF400310B
:10287000916140F20042C4F202024FF48031916152
:1028800040F20002C4F20202106910F400404FEA64
:10289000D03040F20042C4F202024FF001019161D7
:1028A00027E340F60002C4F202024FF020019161DA
:1028B00040F20042C4F202024FF00201916140F284
:1028C0000002C4F202024FF00201916140F20042A4
:1028D000C4F202024FF02001916140F20042C4F2C2
:1028E00002024FF40061916140F60002C4F202025C
:1028F0004FF00401916140F60002C4F202024FF071
:102900001001916140F20042C4F202024FF48031A2
:10291000916140F60042C4F202024FF480219161BD
:1029200040F60042C4F202024FF00401916140F609
:102930000002C4F202024FF40031916140F2004201
:10294000C4F202024FF48031916140F60002C4F2F9
:102950000202106910F480704FEA102040F2004229
:10296000C4F202024FF001019161C2E240F600029E
:10297000C4F202024FF02001916140F20042C4F221
:1029800002024FF40031916140F20002C4F20202EF
:102990004FF00201916140F20042C4F202024FF096
:1029A0002001916140F20042C4F202024FF4006142
:1029B000916140F60002C4F202024FF004019161FD
:1029C00040F60002C4F202024FF01001916140F2A1
:1029D0000042C4F202024FF00101916140F6004250
:1029E000C4F202024FF48021916140F60042C4F229
:1029F00002024FF00401916140F60002C4F20202AB
:102A00004FF40031916140F20042C4F202024FF4EF
:102A10000031916140F20002C4F20202106910F428
:102A200000404FEAD03040F20042C4F202024FF0C0
:102A3000020191615DE240F60002C4F202024FF031
:102A40002001916140F20042C4F202024FF40031D1
:102A5000916140F20002C4F202024FF00201916162
:102A600040F20042C4F202024FF02001916140F2B4
:102A70000042C4F202024FF40061916140F600028C
:102A8000C4F202024FF00401916140F60002C4F268
:102A900002024FF01001916140F20042C4F20202C2
:102AA0004FF00101916140F60042C4F202024FF47E
:102AB0008021916140F60042C4F202024FF004010D
:102AC000916140F60002C4F202024FF400319161BC
:102AD00040F20042C4F202024FF40031916140F62C
:102AE0000002C4F20202106910F480704FEA102054
:102AF00040F20042C4F202024FF002019161F8E19B
:102B000040F60002C4F202024FF02001916140F24F
:102B10000042C4F202024FF00201916140F2000251
:102B2000C4F202024FF00201916140F20042C4F28D
:102B300002024FF02001916140F20042C4F2020211
:102B40004FF40061916140F60002C4F202024FF0BE
:102B50000401916140F60002C4F202024FF48011B8
:102B6000916140F20042C4F202024FF00101916112
:102B700040F60042C4F202024FF48021916140F617
:102B80000042C4F202024FF00401916140F60002DB
:102B9000C4F202024FF40031916140F60002C4F227
:102BA00002024FF48011916140F20002C4F202026D
:102BB000106910F400404FEAD03040F60002C4F231
:102BC00002024FF01001916193E140F60002C4F25D
:102BD00002024FF02001916140F20042C4F2020271
:102BE0004FF00201916140F20002C4F202024FF084
:102BF0000201916140F20042C4F202024FF0200152
:102C0000916140F20042C4F202024FF4006191610E
:102C100040F60002C4F202024FF00401916140F656
:102C20000002C4F202024FF48011916140F20042AE
:102C3000C4F202024FF00101916140F60042C4F279
:102C400002024FF48021916140F60042C4F2020278
:102C50004FF00401916140F60002C4F202024FF409
:102C60000031916140F60002C4F202024FF480117B
:102C7000916140F60002C4F20202106910F4807003
:102C80004FEA102040F60002C4F202024FF0100199
:102C900091612EE140F60002C4F202024FF40011ED
:102CA000916140F20042C4F202024FF002019161D0
:102CB00040F20002C4F202024FF00201916140F2C0
:102CC0000042C4F202024FF02001916140F2004242
:102CD000C4F202024FF40061916140F60002C4F2B6
:102CE00002024FF00401916140F60002C4F20202B8
:102CF0004FF01001916140F20042C4F202024FF025
:102D00000101916140F60042C4F202024FF48021B9
:102D1000916140F60042C4F202024FF00401916159
:102D200040F60002C4F202024FF40031916140F615
:102D30000002C4F202024FF40011916140F200025D
:102D4000C4F20202106910F400404FEAD03040F69D
:102D50000002C4F202024FF020019161C9E040F686
:102D60000002C4F202024FF40011916140F20042ED
:102D7000C4F202024FF00201916140F20002C4F27B
:102D800002024FF00201916140F20042C4F20202DD
:102D90004FF02001916140F20042C4F202024FF470
:102DA0000061916140F60002C4F202024FF004019A
:102DB000916140F60002C4F202024FF010019161ED
:102DC00040F20042C4F202024FF00101916140F66C
:102DD0000042C4F202024FF48021916140F60042A9
:102DE000C4F202024FF00401916140F60002C4F205
:102DF00002024FF40031916140F60002C4F2020277
:102E00004FF40011916140F60002C4F20202106911
:102E100010F480704FEA102040F60002C4F2020263
:102E20004FF02001916164E040F60002C4F202021A
:102E30004FF02001916140F20042C4F202024FF0D3
:102E40000201916140F20002C4F202024FF400312B
:102E5000916140F20042C4F202024FF02001916100
:102E600040F20042C4F202024FF40061916140F668
:102E70000002C4F202024FF00401916140F6000228
:102E8000C4F202024FF01001916140F20042C4F21C
:102E900002024FF00101916140F60042C4F20202C9
:102EA0004FF48021916140F60042C4F202024FF0DB
:102EB0000401916140F60002C4F202024FF40031B5
:102EC000916140F20002C4F202024FF400319161BC
:102ED00040F20002C4F20202106910F400404FEA0E
:102EE000D03040F20002C4F202024FF002019161C0
:102EF000FFE70FB500F003F8BDE80F4071E066484A
:102F0000664B198850F8212001F101010429ACBF5A
:102F100040F20000084618601046FEF79EBC604B69
:102F200053F82020DFE802F0030A16222935002991
:102F30005BD140F2010243F8202056E0002904D181
:102F400040F2020243F820204FE040F2000243F832
:102F500020204AE0002904D140F2030243F8202057
:102F600023E040F2000243F820203EE000293CD05C
:102F700040F2040243F8202037E0002904D140F257
:102F8000030243F8202030E040F2050243F82020FD
:102F90002BE0002904D140F2030243F8202024E072
:102FA00040F2000243F82020FFE781F0010140F2E7
:102FB000000242EA010201BC00F1010101B44FEA42
:102FC000410142EA01023748026000B500F052F9BF
:102FD0005DF804EB09E000B540F2000001B4FFF732
:102FE00048BA014601BC01B499E701BC00F10100F7
:102FF0000D28F3DB5DF804EB704700B52A4A92E830
:103000000300254B002804D04FF0020243F82210A1
:1030100003E04FF0000243F822105DF804EB704724
:1030200000B5214A92E803001B4B002818D0012963
:1030300004BF00220CE0032904BF012208E0052997
:1030400004BF022204E0072904BF032200E01FE0BE
:1030500053F822100F29B8BF013143F8221017E0AE
:10306000022904BF00220CE0042904BF012208E069
:10307000062904BF022204E0082904BF032200E05D
:1030800006E053F822100029C8BF013943F8221086
:103090005DF804EB704700008C010020480100201F
:1030A00050010020C8010020CC01002010B594B0D0
:1030B000214B1A6C42F080521A641B6C03F080534F
:1030C0000193019B1D4B1A6842F480421A601B68F1
:1030D00003F480430293029B0123089309934FF466
:1030E00080030F93082310934FF4A87311930224C5
:1030F0001294072313930E9408A8FDF7E5FB0F2302
:1031000003930494002305934FF4A05306934FF4C4
:103110008053079303A80521FDF730FEFEF732F830
:10312000074BA3FB00208009FDF708FA0420FDF7F8
:103130001BFA14B010BD00BF003802400070004000
:10314000D34D621008B5FDF779F9FFF7AFFFFEF731
:1031500081F900F03FF808BD08B502200146FEF7EE
:103160007CFB00220E4B1A6002E001330C4A136014
:103170000B4B1B6842F20F729342F6DD01200146B1
:10318000FEF76BFB0022064B1A6002E00133044A93
:103190001360034B1B6842F20F729342F6DDDCE7CB
:1031A0008801002000B587B0084B33F81030019338
:1031B0000123029303930493054B53F8200001A9C4
:1031C000FDF7EEF907B05DF804FB00BF843D000891
:1031D0002000002000B585B0254B1A6B42F001029B
:1031E0001A631A6B02F001020092009A1A6B42F005
:1031F00002021A631A6B02F002020192019A1A6B20
:1032000042F004021A631A6B02F004020292029A5C
:103210001A6B42F008021A631B6B03F00803039356
:10322000039B0020FFF7BEFF0120FFF7BBFF02203A
:10323000FFF7B8FF0320FFF7B5FF0420FFF7B2FF49
:103240000520FFF7AFFF0620FFF7ACFF0720FFF7D1
:10325000A9FF0820FFF7A6FF0920FFF7A3FF0A2018
:10326000FFF7A0FF0B20FFF79DFF05B05DF804FB03
:1032700000380240074B1B68132B08D8591C054A1D
:1032800011600168044A42F82310002070474FF093
:10329000FF307047B8010020CC010020014B1868B6
:1032A000704700BFB0000020034613F8012B002A2E
:1032B000FBD1181A0138704730B5141E9BB0054673
:1032C00004DA8B2303604FF0FF301CE04FF40272EE
:1032D00000910491ADF80C2014BF04F1FF31214698
:1032E0004FF6FF7202910591ADF80E2069461A461D
:1032F0001E9B00F077F8431CBCBF8B232B6014B1DE
:10330000009B00221A701BB030BD000073B5009303
:10331000054B06460D461446186831462A46234694
:10332000FFF7CAFF02B070BDB00000202DE9F047E2
:103330008D68AB4281460C4692461F4643D38B892B
:1033400013F4906F3DD026680969C1EB06086669E1
:10335000022206EB460696FBF2F608F101023A4419
:10336000964238BF16465B050FD5314600F028FB64
:10337000054698B12169424600F0B9FAA38923F4C1
:10338000906343F08003A38113E0324600F06EFBAC
:10339000054670B94846216900F0CEFA0C23C9F8F9
:1033A0000030A38943F04003A3814FF0FF30BDE814
:1033B000F087256166614544C8EB06062560A66076
:1033C0003D46AF4200D23D462A462068514600F0B5
:1033D00097FAA3685B1BA36023681D442560002047
:1033E000BDE8F0872DE9F0439DB0074603938B8934
:1033F0001C060D4616460CD50B6953B9402100F04A
:10340000DFFA2860286110B90C233B60C8E0402334
:103410006B610023099320238DF8293030238DF828
:103420002A3033461C4613F8012B1AB9B4EB0609AF
:103430000FD002E0252AF5D1F8E738462946324672
:103440004B46FFF773FF013000F0A580099B4B440A
:1034500009932378002B00F09E8000234FF0FF3269
:1034600004930793059206938DF853301A9304F151
:1034700001094C464D4E21783046052200F028FACD
:1034800009F10109049B28B1861B0120B0400343C8
:103490000493EEE7D90644BF20228DF853201A0783
:1034A00044BF2B228DF8532022782A2A02D0079B72
:1034B00021460EE0039A111D12680391002A01DBD8
:1034C000079204E0524243F002030792049301344E
:1034D0000AE00C4601312278303A092A03D80A2042
:1034E00000FB0323F5E7079323782E2B1AD163788B
:1034F0002A2B0AD1039B1A1D1B680392002B04F18F
:103500000204B8BF4FF0FF330BE0611C00230C46F0
:1035100001312278303A092A03D80A2000FB03231C
:10352000F5E70593224E21783046032200F0D0F9CA
:1035300030B1861B049B4020B04003430493013408
:1035400021781C488DF828100622661C00F0C0F96E
:1035500088B1194B33B9039B073323F007030833B2
:10356000039314E003AB0093384604A92A46134B97
:10357000AFF3008007E003AB0093384604A92A4666
:103580000E4B00F08FF8B0F1FF3F804603D0099B4F
:103590004344099345E7AB895B0601D4099801E0F0
:1035A0004FF0FF301DB0BDE8F08300BF9E3D000826
:1035B000A43D0008A83D0008000000002D330008CD
:1035C0002DE9F84315461F468A680B69DDF820800F
:1035D0009A42A8BF13462B6091F8432006460C463A
:1035E0000AB101332B602368990602D52B68023398
:1035F0002B60236813F006091DD094F8433022682D
:10360000003318BF012392061FD5E1185A1C302041
:1036100081F84300224494F8451082F843100233A5
:1036200013E03046394604F119020123C047013046
:1036300007D009F10109E2682B68D31A9945F0DB3C
:10364000DBE74FF0FF30BDE8F8833046394604F140
:103650004302C0470130F4D023682A68E16803F0D0
:103660000603042B08BFC2EB01052369A2680CBF47
:1036700025EAE57500259A42C4BFC3EB0203ED18A5
:103680004FF00009A9450ADA3046394604F11A021A
:103690000123C0470130D4D009F10109F2E700202D
:1036A000BDE8F8832DE9FF470E7E0C9D6E2E804607
:1036B0000C4691469A4601F1430000F0A58011D8CE
:1036C000632E22D009D8002E00F0B280582E40F090
:1036D000C28081F845607C4A4FE0642E1ED0692E7E
:1036E0001CD0B8E0732E00F0A78009D86F2E2BD025
:1036F000702E40F0B0800B6843F020030B6038E080
:10370000752E21D0782E34D0A5E02B681A1D1B68A9
:103710002A6001F1420781F84230A0E022682B685C
:1037200012F0800F03D01A1D2A601D6805E05706AD
:10373000F9D51A1D2A60B3F90050002D39DA2D236E
:103740006D4284F8433034E022682B6812F0800F19
:1037500003D01A1D2A601D6804E05606F9D51A1D0B
:103760002A601D88237E584A6F2B14BF0A23082322
:103770001BE07823554A84F845302368296813F004
:10378000800F01F104062E6001D00D6802E05D0695
:10379000FBD50D88D90744BF43F0200323601DB932
:1037A000236823F0200323601023002184F84310B2
:1037B00001E0454A0A236668A660002E03DB216803
:1037C00021F00401216005B96EB104F14201B5FB9D
:1037D000F3F603FB16550F46555D01F801593546C2
:1037E000002EF4D100E00746082B0AD12368DA073F
:1037F00007D5626823699A4203DC302307F8013C4D
:10380000013FC01B20612FE009682B68626911F03D
:10381000800F03D0191D29601B6808E011F0400FCC
:1038200003F1040129601B6801D01A8000E01A60CE
:1038300000232361074617E02B681A1D2A601F68C2
:103840003846FFF731FD63682061984288BF2361E5
:103850002369636005E004F1420784F842600123B4
:103860002361002384F84330CDF800A04046214670
:1038700003AA4B46FFF7A4FE013002D14FF0FF3000
:103880001FE0404649463A462369D0470130F5D00B
:1038900023689B0705D4E068039B9842B8BF18468D
:1038A0000FE00025E268039BD31A9D42F3DA4046FD
:1038B000494604F119020123D0470130DED0013519
:1038C000F0E704B0BDE8F087AF3D0008C03D000858
:1038D00010B5C9B202449042034606D01C788C420F
:1038E00000F10100F7D1184610BD002010BD10B541
:1038F0000023934203D0CC5CC4540133F9E710BDDC
:10390000814270B501D300230EE08C18A042FAD298
:103910008518134613F1FF3305D351426618294425
:10392000F65CCE54F6E770BD934203D0CC5CC45431
:103930000133F9E770BD000030B500293CD051F8E3
:10394000042C0B1F1D49002AB8BF9B180A680C469F
:1039500012B95A600B6030BD93420DD219685818E5
:10396000904203D15A581144426819605A6023604A
:1039700030BD994203D80A4651680029F9D114682C
:1039800015199D420AD11B682344D0188842136040
:1039900012D10868034413604B680CE002D90C2371
:1039A000036030BD18681C188C4203D10C6849684C
:1039B000204418605960536030BD00BFC001002032
:1039C00070B5CD1C25F0030508350C2D38BF0C252E
:1039D000002D064603DA0C233360002070BD8D42B3
:1039E000F9D3204B1C6818462146A1B10B685B1B1C
:1039F0000ED40B2B03D90B60CC18CD501FE08C429A
:103A000002D1626802601AE04B6863600C4616E0FF
:103A10000C464968E9E7144C23681BB9304600F0AE
:103A20004BF820602946304600F046F8431C01461A
:103A3000D1D0C41C24F0030484420AD1256004F1CF
:103A40000B00231D20F00700C31A09D05A42E25090
:103A500070BD3046611A00F02FF80130EED1BAE7A0
:103A600070BD00BFC0010020BC010020F8B50646B3
:103A700014460D4621B91146BDE8F840FFF7A0BF36
:103A80001AB9FFF759FF2046F8BD00F025F8A0420B
:103A90000ED230462146FFF793FF074650B1294624
:103AA0002246FFF724FF30462946FFF745FF01E095
:103AB0002846F8BD3846F8BD38B5064C0023054603
:103AC00008462360FDF786FB431C02D1236803B13F
:103AD0002B6038BDC401002051F8040C002802DA24
:103AE00004390B5818440438704700002E2E2F73E9
:103AF000797374656D2F7372632F73746D333266CF
:103B0000342D68616C2F73746D3332663478785F4E
:103B100068616C5F636F727465782E6300000000EB
:103B20002E2E2F73797374656D2F7372632F7374D8
:103B30006D333266342D68616C2F73746D33326669
:103B40003478785F68616C5F6770696F2E6300001E
:103B50000000000001020304010203040607080933
:103B60002E2E2F73797374656D2F7372632F737498
:103B70006D333266342D68616C2F73746D33326629
:103B80003478785F68616C5F7263632E6300000055
:103B900061626F727428292C2065786974696E6778
:103BA0002E2E2E002C2066756E6374696F6E3A207F
:103BB00000000000617373657274696F6E202225C6
:103BC0007322206661696C65643A2066696C6520C1
:103BD000222573222C206C696E65202564257325AF
:103BE000730A00006173736572745F706172616D56
:103BF0002829206661696C65643A2066696C6520D5
:103C0000222573222C206C696E652025640A000031
:103C10006D61696E28617267633D25642C20617255
:103C200067763D5B000000002C20000022257322F7
:103C3000000000005D293B0A00000000537461632E
:103C40006B206672616D653A0A00000020523020D8
:103C50003D2020253038580A000000002052312035
:103C60003D2020253038580A000000002052322024
:103C70003D2020253038580A000000002052332013
:103C80003D2020253038580A0000000020523132F3
:103C9000203D20253038580A00000000204C5220DA
:103CA0003D2020253038580A0000000020504320D5
:103CB0003D2020253038580A000000002050535283
:103CC000203D20253038580A000000004653522F6E
:103CD0004641523A0A0000002043465352203D20FC
:103CE00020253038580A00002048465352203D20F5
:103CF00020253038580A00002044465352203D20E9
:103D000020253038580A00002041465352203D20DB
:103D100020253038580A0000204D4D464152203DA4
:103D200020253038580A00002042464152203D20CC
:103D300020253038580A00004D6973630A000000DE
:103D4000204C522F4558435F52455455524E3D200A
:103D5000253038580A0000005B486172644661757E
:103D60006C745D0A000000005B4275734661756CFF
:103D7000745D0A005B55736167654661756C745DBF
:103D80000A000000200002000200200000080400D9
:103D90001000010002000400100000084300232D61
:103DA000302B2000686C4C00656667454647003044
:103DB0003132333435363738394142434445460091
:103DC0003031323334353637383961626364656691
:013DD00000F2
:103DD40078563412C40000200000000000000000E7
:103DE4000000000001020304060708090024F4008F
:103DF40000080240000402400000024000040240A7
:103E0400000402400008024000080240000402408E
:103E140000080240000C0240000402400008024076
:103E2400000000000000000000000000000000008E
:103E3400000000000000000000000000000000007E
:103E44009C3D00080000000000000000000000008D
:103E5400000000000000000000000000000000005E
:103E6400000000000000000000000000000000004E
:103E7400000000000000000000000000000000003E
:083E8400500000203254769832
:040000050800018965
:00000001FF
