:020000040800F2
:100000000000022071020008750200087702000853
:10001000B5020008B7020008CD0200080000000089
:10002000000000000000000000000000E3020008E3
:10003000E502000800000000E7020008E9020008ED
:10004000FD020008FD020008FD020008FD02000894
:10005000FD020008FD020008FD020008FD02000884
:10006000FD020008FD020008FD020008FD02000874
:10007000FD020008FD020008FD020008FD02000864
:10008000FD020008FD020008FD020008FD02000854
:10009000FD020008FD020008FD020008FD02000844
:1000A000FD020008FD020008FD020008FD02000834
:1000B000FD020008FD020008FD020008FD02000824
:1000C000FD020008FD020008FD020008FD02000814
:1000D000FD020008FD020008FD020008FD02000804
:1000E000FD020008FD020008FD020008FD020008F4
:1000F000FD020008FD020008FD020008FD020008E4
:10010000FD020008FD020008FD020008FD020008D3
:10011000FD020008FD020008FD020008FD020008C3
:10012000FD020008FD020008FD020008FD020008B3
:10013000FD020008FD020008FD020008FD020008A3
:10014000FD020008FD020008FD020008FD02000893
:10015000FD020008FD020008FD020008FD02000883
:10016000FD020008FD020008FD020008FD02000873
:10017000FD020008FD020008FD020008000000006A
:10018000FD020008FD02000807B500F041FD2E4BFE
:100190002E4AA3F10C0191420FD253F8081C53F8D8
:1001A0000C4C53F8040C0A46904204D9651AAD5819
:1001B00042F8045BF8E70C33EAE7254B254AA3F144
:1001C000080191420BD253F8082C53F8041C8A42C0
:1001D00003D2002042F8040BF9E70833EEE702F0FF
:1001E000B5FB684601A900F00BFD1B4D1B4BED1A3A
:1001F000AD1000241E46AC4204DA56F82420904785
:100200000134F8E7164B174DED1AAD1000241E46C9
:10021000AC4204DA56F8242090470134F8E7124D36
:10022000124C9DE8030002F09DFB641BA4100646DF
:1002300005EB8405002C04DD55F8043D013C98478E
:10024000F8E7304600F0D8FC0C030008180300085B
:1002500020030008280300082803000828030008DA
:1002600028030008280300082803000828030008C2
:100270001E480047FEE71EF0040F0CBFEFF3088096
:10028000EFF3098071461A4A104710B5084C236BEA
:100290009B070CD5E36A002B09DA4BF6AB6100F043
:1002A000C9FC00B903E04FF00043E36210BDFEE774
:1002B00000ED00E0FEE71EF0040F0CBFEFF3088036
:1002C000EFF3098071460B4A1047FEE71EF0040F5A
:1002D0000CBFEFF30880EFF309807146064A104720
:1002E000FEE7FEE7FEE7FEE7704700008901000831
:0E02F0008B020008CB020008E1020008FEE7C6
:10030000B82A0008000000204C000020B82A00088D
:10031000000000100000001050000020200100200C
:080320000000001000000010B5
:10032800704710B5044600F047FC4FF47A73B0FBF1
:10033800F3F000F06DF84FF0FF302146002200F096
:1003480035F8002010BD000008B50B4B1A6842F4C0
:1003580000721A601A6842F480621A601A6842F4DD
:1003680080721A60032000F00FF80F20FFF7D9FF02
:10037800FFF7D6FF002008BD003C0240014B18687B
:10038800704700BF50000020074AD36823F4E06399
:100398001B041B0C43F0BF6343F4003300F0070059
:1003A80043EA0023D360704700ED00E0164BDB689A
:1003B800C3F3022370B51D1DC3F10704042C28BF25
:1003C8000424062D4FF001058CBF033B002305FADA
:1003D80004F405FA03F6013C013E2140324001FADB
:1003E80003F3134300284FEA031305DADAB200F0E7
:1003F8000F00064B1A5470BD00F1604000F56140D3
:10040800DBB280F8003370BD00ED00E014ED00E0D1
:100418000138B0F1807F0AD2064B074A5860F021B4
:1004280082F823100020072298601A607047012084
:10043800704700BF10E000E000ED00E0044B1A68D0
:1004480004280CBF42F0040222F004021A6070472C
:1004580010E000E02DE9F7430F68002301229A40DD
:1004680002EA0705954240F0CF804C6824F0100658
:10047800022E16D14FEAD30C00EB8C0C03F00708C0
:10048800DCF820204FEA88084FF00F0909FA08F92C
:1004980022EA09090A6902FA08F849EA0802CCF8C6
:1004A80020205A004FF0030CD0F800900CFA02FC00
:1004B8006FEA0C0C04F003080CEA090908FA02F8C0
:1004C800013E49EA0808012EC0F8008010D8866865
:1004D8000CEA0608CE68964048EA06068660466832
:1004E80026EA0508C4F300169E4048EA0606466058
:1004F800C6680CEA060C8E6896404CEA0602C26092
:10050800E20040F18180444A566C46F480465664C5
:10051800526C23F0030606F1804602F4804206F589
:100528009C36019203F0030C019AB2684FEA8C0CD6
:100538004FF00F0808FA0CF822EA0808374A9042E8
:1005480022D002F58062904220D002F5806290426B
:100558001ED002F5806290421CD002F58062904263
:100568001AD002F58062904218D002F5806290425B
:1005780016D002F58062904214D002F58062904253
:1005880014BF092208220EE000220CE001220AE032
:10059800022208E0032206E0042204E0052202E029
:1005A800062200E0072202FA0CF242EA0802B260D0
:1005B8001B4ED6F800C0EA4314F4803F14BF45EA46
:1005C8000C0C02EA0C0CC6F800C0766814F4003F64
:1005D80014BF45EA060C02EA060C114EC6F804C020
:1005E800D6F808C014F4801F14BF45EA0C0C02EAC0
:1005F8000C0CC6F808C0F668A40258BF02EA060543
:10060800074A48BF3543D5600133102B7FF426AF26
:1006180003B0BDE8F08300BF00380240000002408C
:10062800003C01400368F7B50446D80703D42368A3
:1006380099074CD48EE0844B9A6802F00C02042A85
:1006480007D09A6802F00C02082A0BD15B685A029C
:1006580008D57D4B1B689B03E9D56368002BE6D161
:1006680001205BE1794D00232B70FFF787FE0646DA
:10067800754B1B689F0308D5FFF780FE41F288334E
:10068800801B9842F4D9032048E123792B706368D2
:1006980073B1FFF773FE05466B4B1B689E03C6D408
:1006A800FFF76CFE41F28833401B9842F4D9EAE721
:1006B800FFF764FE0546644B1B689803B7D5FFF740
:1006C8005DFE41F28833401B9842F4D9DBE75E4B6C
:1006D8009A6812F00C0F07D09A6802F00C02082AE8
:1006E8000AD15B68590207D4574B1A68920715D587
:1006F800E268012AB4D111E0E268554BE2B1012267
:100708001A60FFF73BFE05464F4B1A68970705D45A
:10071800FFF734FE401B6428F6D9B4E71968F820BF
:1007280090FAA0F0B0FA80F02269C0B2824021F0BD
:10073800F8010A431A600DE01A60FFF71FFE05462C
:10074800414B1B689E0705D5FFF718FE401B642820
:10075800F6D998E723681D0703D4236858074BD5B3
:100768001FE062693B4B72B101221A60FFF706FE77
:100778000546354B5B6F9907EFD4FFF7FFFD401B2C
:100788006428F6D97FE71A60FFF7F8FD05462E4B77
:100798005B6F9A07E1D5FFF7F1FD401B6428F6D996
:1007A80071E7294B1A6C42F080521A641B6C03F0F3
:1007B80080530193019B284B1A6842F480721A6097
:1007C800FFF7DCFD0546244B1B68DB0517D5234DD9
:1007D80000232B70FFF7D2FD06461B4B1B6F9F07AC
:1007E80013D4237A2B70A368FBB1FFF7C7FD054626
:1007F800154B1B6F9E0710D5A3698BBB73E0FFF7E2
:10080800BDFD401B6428DED93DE7FFF7B7FD41F287
:100818008833801B9842E0D935E7FFF7AFFD41F2F6
:100828008833401B9842E3D92DE7FFF7A7FD05461B
:10083800054B1B6F9807DFD5FFF7A0FD41F2883302
:10084800401B9842F4D91EE70038024002380240A3
:1008580000004742800E4742007000407038024056
:100868002F4A926802F00C02082A3FF4F9AE2D4D87
:10087800022B4FF000032B6043D1FFF77FFD0646A4
:10088800274B1A68910130D447F6C07292FAA2F247
:10089800B2FA82F24FF4403797FAA7F7B7FA87F718
:1008A8004FF0706696FAA6F6B6FA86F6206AE169FF
:1008B8000143D0B2626A82401143A26AE46A5208D4
:1008C800013AFFB202FA07F741EA0702F1B28C4097
:1008D80022435A6001232B60FFF750FD0446104B5A
:1008E8001B689A0107D5002018E0FFF747FD801B19
:1008F8006428C5D9C7E6FFF741FD001B6428EED977
:10090800C1E6FFF73BFD0446054B1B689B01EAD592
:10091800FFF734FD001B6428F6D9B4E603B0F0BD38
:1009280000380240600047427E4B1A6802F00F020E
:10093800914270B504460D4677D9CAB21A701B6841
:1009480003F00F038B4201D0012070BD03689E079E
:1009580006D5754AA168906820F0F00001439160BF
:10096800DD070BD42368580740F1CC806E4AE16854
:10097800906820F4E05001439160C3E063686A4ADC
:10098800012B03D1126812F4003F08E0991E0129D7
:10099800126802D812F0007F01E012F0020FD3D0E3
:1009A800614A916821F003010B439360FFF7E6FC6D
:1009B8006368012B05460ED15B4B9B6803F00C0363
:1009C800042BCFD0FFF7DAFC41F28833401B984262
:1009D800F2D9032070BD022B0DD1534B9B6803F055
:1009E8000C03082BBED0FFF7C9FC41F28833401B2B
:1009F8009842F2D9EDE7032B05D04B4B9B6813F0D7
:100A08000C0F0AD1AEE7484B9B68FFF7B7FC41F2E1
:100A18008833401B9842F6D9DBE7FFF7AFFC41F279
:100A28008833401B9842E8D9D3E70368990706D56D
:100A38003D4AA168906820F0F00001439160DA0710
:100A480009D4384BEAB21A701B6803F00F03AB42A3
:100A58007FF47AAF86E76368334A012B03D11268C3
:100A680012F4003F08E0991E0129126802D812F01A
:100A7800007F01E012F0020F3FF466AF2A4A916846
:100A880021F003010B439360FFF778FC6368012BA7
:100A980006460DD1244B9B6803F00C03042BD0D0E1
:100AA800FFF76CFC41F28833801B9842F2D990E73B
:100AB800022B0DD11C4B9B6803F00C03082BC0D0F4
:100AC800FFF75CFC41F28833801B9842F2D980E73B
:100AD800032B05D0144B9B6813F00C0F0AD1B0E719
:100AE800114B9B68FFF74AFC41F28833801B984200
:100AF800F6D96EE7FFF742FC41F28833801B984233
:100B0800E8D966E71B0707D5074B21699A6822F4DD
:100B1800604242EAC1029A600F20FFF702FC0020FF
:100B280070BD00BF003C0240003802401F4B9A686D
:100B380002F00C02042A37D0082A01D01C4870475A
:100B480059685A68586812F4800F01F03F0147F657
:100B5800C0720BD092FAA2F3B3FA83F3DBB202406D
:100B6800DA40144BB3FBF1F353430CE092FAA2F2D0
:100B7800B2FA82F247F6C07303400D48D2B2D340AE
:100B8800B0FBF1F14B43094A50684FF4403292FAF6
:100B9800A2F2B2FA82F2D2B200F44030D040013070
:100BA8004000B3FBF0F0704702487047003802403D
:100BB8000024F40000127A0008B5FFF7B7FF094BCC
:100BC8009A68F02393FAA3F3B3FA83F302F0F002DE
:100BD800DBB222FA03F3044AD35CD840034B186013
:100BE80008BD00BF00380240902A00081800002005
:100BF80008B500F00BF8000001230360014B0B60FF
:100C0800704700BF0000002000F01EB8BFF34F8FF0
:100C1800044A054BD16801F4E0610B43D360BFF38C
:100C28004F8FFEE700ED00E00400FA0583691A889B
:100C38008A4207D10268033A012A03D80233836142
:100C480001207047002070470C4B1A68002142F0C1
:100C580001021A6099601A6822F0847222F48032C4
:100C68001A60074A5A601A6822F480221A60D9600A
:100C7800044B4FF000629A60704700BF0038024092
:100C88001030002400ED00E0174A184B916801F07D
:100C98000C01042903D0082903D0154A18E0154A85
:100CA80016E05068516810F4800F506814BF114A5C
:100CB8000F4A01F03F01B2FBF1F20B494968C1F359
:100CC8000141C0F38810013142434900B2FBF1F2FF
:100CD8001A60054A08499268C2F30312895C1A68C7
:100CE800CA401A60704700BF003802401800002050
:100CF8000024F40000127A000800002040F20002EC
:100D0800C4F20202116821F00C011160116841F06F
:100D180004011160516821F002015160916821F0CD
:100D28000C019160916841F008019160D16821F04F
:100D38000C01D160D16841F00401D16040F2004259
:100D4800C4F20202116821F003011160116841F038
:100D580001011160516821F001015160916821F091
:100D680003019160916841F002019160D16821F01E
:100D78000301D160D16841F00101D16040F2004225
:100D8800C4F20202116821F00C011160116841F0EF
:100D980004011160516821F002015160916821F04D
:100DA8000C019160916841F008019160D16821F0CF
:100DB8000C01D160D16841F00401D16040F20042D9
:100DC800C4F20202116821F440611160116841F413
:100DD80080611160516821F020015160916821F40F
:100DE80040619160916841F400619160D16821F49B
:100DF8004061D160D16841F48061D16040F2004225
:100E0800C4F20202116821F440011160116841F432
:100E180080011160516821F400615160916821F4EA
:100E280040019160916841F400019160D16821F41A
:100E38004001D160D16841F48001D16040F60002E0
:100E4800C4F20202116821F030011160116841F00A
:100E580010011160516821F004015160916821F07E
:100E680030019160916841F020019160D16821F0D2
:100E78003001D160D16841F01001D16040F6000224
:100E8800C4F20202116821F440711160116841F442
:100E980080711160516821F010015160916821F44E
:100EA80040719160916841F400719160D16821F4BA
:100EB8004071D160D16841F48071D16040F6000280
:100EC800C4F20202116821F440611160116841F412
:100ED80080611160516821F020015160916821F40E
:100EE80040619160916841F400619160D16821F49A
:100EF8004061D160D16841F48061D16040F6004220
:100F0800C4F20202116821F030011160116841F049
:100F180010011160516821F004015160916821F0BD
:100F280030019160916841F020019160D16821F011
:100F38003001D160D16841F01001D16040F6000263
:100F4800C4F20202116821F440011160116841F4F1
:100F580080011160516821F400615160916821F4A9
:100F680040019160916841F400019160D16821F4D9
:100F78004001D160D16841F48001D16040F600029F
:100F8800C4F20202116821F00C011160116841F0ED
:100F980004011160516821F002015160916821F04B
:100FA8000C019160916841F008019160D16821F0CD
:100FB8000C01D160D16841F00401D16040F20042D7
:100FC800C4F20202116821F440711160116841F401
:100FD80080711160516821F010015160916821F40D
:100FE80040719160916841F400719160D16821F479
:100FF8004071D160D16841F48071D16040F2000243
:10100800C4F20202116821F040411160916821F098
:1010180040419160916841F000419160D16821F0B0
:101028004041D160D16841F08041D16040F6000272
:10103800C4F20202116821F440311160916821F470
:1010480040319160916841F400319160D16821F498
:101058004031D160D16841F48031D160704702B429
:1010680040F20042C4F202024FF01001916140F6D2
:101078000002C4F202024FF002019161DFE810F0B1
:10108800100058009F00E6002D017401BB01020208
:1010980049029002D7021E036503AC03F3033A0426
:1010A80040F60002C4F202024FF40011916140F2CE
:1010B8000042C4F202024FF40031916140F2000292
:1010C800C4F202024FF40031916140F20042C4F2CE
:1010D80002024FF40011916140F20042C4F2020290
:1010E8004FF00061916140F60002C4F202024FF431
:1010F8008021916140F60002C4F202024FF0100113
:10110800916140F20042C4F202024FF00101916184
:1011180040F60042C4F202024FF48021916140F689
:101128000042C4F202024FF00401916100F029BCB0
:1011380040F60002C4F202024FF02001916140F231
:101148000042C4F202024FF40031916140F2000201
:10115800C4F202024FF40031916140F20042C4F23D
:1011680002024FF02001916140F20042C4F20202F3
:101178004FF40061916140F60002C4F202024FF0A0
:101188000401916140F60002C4F202024FF010011E
:10119800916140F20042C4F202024FF001019161F4
:1011A80040F60042C4F202024FF48021916140F6F9
:1011B8000042C4F202024FF004019161E1E340F6FB
:1011C8000002C4F202024FF40011916140F20042A1
:1011D800C4F202024FF40031916140F20002C4F2FD
:1011E80002024FF00201916140F20042C4F2020291
:1011F8004FF40011916140F20042C4F202024FF034
:101208000061916140F60002C4F202024FF004014D
:10121800916140F60002C4F202024FF4801191611C
:1012280040F20042C4F202024FF00101916140F61F
:101238000042C4F202024FF48021916140F600425C
:10124800C4F202024FF0040191619AE340F60002F1
:10125800C4F202024FF40011916140F20042C4F25C
:1012680002024FF40031916140F20002C4F202021E
:101278004FF40031916140F20042C4F202024FF48F
:101288000011916140F20042C4F202024FF4006181
:10129800916140F60002C4F202024FF0040191612C
:1012A80040F60002C4F202024FF48011916140F24C
:1012B8000042C4F202024FF00101916140F600427F
:1012C800C4F202024FF48021916140F60042C4F258
:1012D80002024FF00401916153E340F60002C4F2A8
:1012E80002024FF02001916140F20042C4F2020272
:1012F8004FF40031916140F20002C4F202024FF44F
:101308000031916140F20042C4F202024FF0200124
:10131800916140F20042C4F202024FF4006191610F
:1013280040F60002C4F202024FF48021916140F6B7
:101338000002C4F202024FF48011916140F20042AF
:10134800C4F202024FF00101916140F60042C4F27A
:1013580002024FF48021916140F60042C4F2020279
:101368004FF0040191610CE340F60002C4F202025E
:101378004FF40011916140F20042C4F202024FF0B2
:101388000201916140F20002C4F202024FF40031FE
:10139800916140F20042C4F202024FF400119161DF
:1013A80040F20042C4F202024FF40061916140F63B
:1013B8000002C4F202024FF48021916140F600025B
:1013C800C4F202024FF48011916140F20042C4F26B
:1013D80002024FF00101916140F60042C4F202029C
:1013E8004FF48021916140F60042C4F202024FF0AE
:1013F80004019161C5E240F60002C4F202024FF412
:101408000011916140F20042C4F202024FF0020161
:10141800916140F20002C4F202024FF4003191617E
:1014280040F20042C4F202024FF40011916140F20E
:101438000042C4F202024FF00061916140F60002DE
:10144800C4F202024FF48021916140F60002C4F216
:1014580002024FF48011916140F20042C4F202028C
:101468004FF00101916140F60042C4F202024FF4CC
:101478008021916140F60042C4F202024FF004015B
:1014880091617EE240F60002C4F202024FF40011BC
:10149800916140F20042C4F202024FF400319161BE
:1014A80040F20002C4F202024FF40031916140F2AE
:1014B8000042C4F202024FF02001916140F2004262
:1014C800C4F202024FF40061916140F60002C4F2D6
:1014D80002024FF00401916140F60002C4F20202D8
:1014E8004FF01001916140F20042C4F202024FF045
:1014F8000101916140F60042C4F202024FF48021DA
:10150800916140F60042C4F202024FF00401916179
:1015180037E240F60002C4F202024FF40011916172
:1015280040F20042C4F202024FF40031916140F2ED
:101538000002C4F202024FF40031916140F200420D
:10154800C4F202024FF40011916140F20042C4F269
:1015580002024FF00061916140F60002C4F20202FB
:101568004FF48021916140F60002C4F202024FF468
:101578008011916140F20042C4F202024FF0010171
:10158800916140F60042C4F202024FF48021916159
:1015980040F60042C4F202024FF004019161F0E10A
:1015A80040F60002C4F202024FF40011916140F2C9
:1015B8000042C4F202024FF40031916140F200028D
:1015C800C4F202024FF40031916140F20042C4F2C9
:1015D80002024FF02001916140F20042C4F202027F
:1015E8004FF40061916140F60002C4F202024FF428
:1015F8008021916140F60002C4F202024FF480118A
:10160800916140F20042C4F202024FF0010191617F
:1016180040F60042C4F202024FF48021916140F684
:101628000042C4F202024FF004019161A9E140F6C0
:101638000002C4F202024FF40011916140F200422C
:10164800C4F202024FF40031916140F20002C4F288
:1016580002024FF40031916140F20042C4F20202EA
:101668004FF02001916140F20042C4F202024FF0B3
:101678000061916140F60002C4F202024FF4802139
:10168800916140F60002C4F202024FF480119161A8
:1016980040F20042C4F202024FF00101916140F6AB
:1016A8000042C4F202024FF48021916140F60042E8
:1016B800C4F202024FF00401916162E140F60002B7
:1016C800C4F202024FF02001916140F20042C4F2DC
:1016D80002024FF00201916140F20002C4F20202DC
:1016E8004FF40031916140F20042C4F202024FF41B
:1016F8000011916140F20042C4F202024FF0006111
:10170800916140F60002C4F202024FF48021916117
:1017180040F60002C4F202024FF48011916140F2D7
:101728000042C4F202024FF00101916140F600420A
:10173800C4F202024FF48021916140F60042C4F2E3
:1017480002024FF0040191611BE140F60002C4F26D
:1017580002024FF40011916140F20042C4F2020209
:101768004FF00201916140F20002C4F202024FF010
:101778000201916140F20042C4F202024FF40011EA
:10178800916140F20042C4F202024FF0006191619F
:1017980040F60002C4F202024FF48021916140F643
:1017A8000002C4F202024FF01001916140F20042BF
:1017B800C4F202024FF00101916140F60042C4F206
:1017C80002024FF48021916140F60042C4F2020205
:1017D8004FF004019161D4E040F60002C4F2020225
:1017E8004FF02001916140F20042C4F202024FF42E
:1017F8000031916140F20002C4F202024FF400315C
:10180800916140F20042C4F202024FF4001191616A
:1018180040F20042C4F202024FF00061916140F6CA
:101828000002C4F202024FF00401916140F6000286
:10183800C4F202024FF48011916140F20042C4F2F6
:1018480002024FF00101916140F60042C4F2020227
:101858004FF48021916140F60042C4F202024FF039
:10186800040191618DE040F60002C4F202024FF4D7
:101878000011916140F20042C4F202024FF00201ED
:10188800916140F20002C4F202024FF0020191613C
:1018980040F20042C4F202024FF40011916140F29A
:1018A8000042C4F202024FF00061916140F600026A
:1018B800C4F202024FF48021916140F60002C4F2A2
:1018C80002024FF48011916140F20042C4F2020218
:1018D8004FF00101916140F60042C4F202024FF458
:1018E8008021916140F60042C4F202024FF00401E7
:1018F800916146E040F60002C4F202024FF4001182
:10190800916140F20042C4F202024FF0020191617B
:1019180040F20002C4F202024FF00201916140F26B
:101928000042C4F202024FF02001916140F20042ED
:10193800C4F202024FF00061916140F60002C4F265
:1019480002024FF48021916140F60002C4F20202C3
:101958004FF48011916140F20042C4F202024FF04C
:101968000101916140F60042C4F202024FF4802165
:10197800916140F60042C4F202024FF00401916105
:10198800FFE702BCDFE811F005004C009300DA0025
:10199800210140F20042C4F202024FF0200191619D
:1019A80040F20042C4F202024FF40061916140F239
:1019B8000042C4F202024FF00101916140F200427C
:1019C800C4F202024FF00201916140F60002C4F233
:1019D80002024FF01001916140F20002C4F20202CB
:1019E8004FF00201916140F60002C4F202024FF08A
:1019F8000401916140F60002C4F202024FF40011A2
:101A0800916140F60002C4F202024FF00061916158
:101A180040F60002C4F202024FF4006191611BE13A
:101A280040F20042C4F202024FF02001916140F2FC
:101A38000042C4F202024FF40061916140F2004298
:101A4800C4F202024FF00101916140F20042C4F277
:101A580002024FF00201916140F60002C4F2020254
:101A68004FF01001916140F20002C4F202024FF0FF
:101A78000201916140F60002C4F202024FF4802193
:101A8800916140F60002C4F202024FF02001916118
:101A980040F60002C4F202024FF00061916140F684
:101AA8000002C4F202024FF400619161D4E040F2F6
:101AB8000042C4F202024FF02001916140F200425C
:101AC800C4F202024FF40061916140F20042C4F294
:101AD80002024FF00101916140F20042C4F2020299
:101AE8004FF00201916140F60002C4F202024FF089
:101AF8001001916140F20002C4F202024FF4003179
:101B0800916140F60002C4F202024FF004019161B3
:101B180040F60002C4F202024FF02001916140F643
:101B28000002C4F202024FF00061916140F6000227
:101B3800C4F202024FF4006191618DE040F200426C
:101B4800C4F202024FF02001916140F20042C4F257
:101B580002024FF40061916140F20042C4F20202B5
:101B68004FF00101916140F20042C4F202024FF0CD
:101B78000201916140F60002C4F202024FF48011A2
:101B8800916140F20002C4F202024FF00201916139
:101B980040F60002C4F202024FF00401916140F6DF
:101BA8000002C4F202024FF02001916140F60002E7
:101BB800C4F202024FF00061916140F60002C4F2E3
:101BC80002024FF40061916146E040F20042C4F223
:101BD80002024FF02001916140F20042C4F2020279
:101BE8004FF40061916140F20042C4F202024FF0EA
:101BF8000101916140F20042C4F202024FF4003147
:101C0800916140F60002C4F202024FF010019161A6
:101C180040F20002C4F202024FF00201916140F664
:101C28000002C4F202024FF00401916140F6000282
:101C3800C4F202024FF02001916140F60002C4F2A2
:101C480002024FF00061916140F60002C4F2020204
:101C58004FF400619161FFE740F60002C4F202020E
:101C68004FF40031916140F20042C4F202024FF495
:101C780080119161704740F60002C4F202024FF0F1
:101C88000201916140F20042C4F202024FF01001D9
:101C98009161DFE810F00D007300D9003E01A30147
:101CA80008026D02D20237039C0301046604CB04C8
:101CB80040F60002C4F202024FF02001916140F2A6
:101CC8000042C4F202024FF00201916140F20002A8
:101CD800C4F202024FF00201916140F20042C4F2E4
:101CE80002024FF40011916140F20042C4F2020274
:101CF8004FF40061916140F60002C4F202024FF015
:101D08000401916140F60002C4F202024FF0100192
:101D1800916140F20042C4F202024FF00101916168
:101D280040F60042C4F202024FF48021916140F66D
:101D38000042C4F202024FF00401916140F6000231
:101D4800C4F202024FF40031916140F20042C4F241
:101D580002024FF40011916140F20002C4F2020243
:101D6800106910F400404FEAD03040F20042C4F24B
:101D780002024FF02001916100F0BDBC40F6000264
:101D8800C4F202024FF02001916140F20042C4F215
:101D980002024FF00201916140F20002C4F2020215
:101DA8004FF00201916140F20042C4F202024FF486
:101DB8000011916140F20042C4F202024FF4006146
:101DC800916140F60002C4F202024FF004019161F1
:101DD80040F60002C4F202024FF01001916140F295
:101DE8000042C4F202024FF00101916140F6004244
:101DF800C4F202024FF48021916140F60042C4F21D
:101E080002024FF00401916140F60002C4F202029E
:101E18004FF40031916140F20042C4F202024FF4E3
:101E28000011916140F60002C4F20202106910F438
:101E380080704FEA102040F20042C4F202024FF0D4
:101E48002001916100F057BC40F60002C4F2020282
:101E58004FF02001916140F20042C4F202024FF0BB
:101E68000201916140F20002C4F202024FF0020145
:101E7800916140F20042C4F202024FF020019161E8
:101E880040F20042C4F202024FF00061916140F654
:101E98000002C4F202024FF00401916140F6000210
:101EA800C4F202024FF01001916140F20042C4F204
:101EB80002024FF00101916140F60042C4F20202B1
:101EC8004FF48021916140F60042C4F202024FF0C3
:101ED8000401916140F60002C4F202024FF400319D
:101EE800916140F20042C4F202024FF00061916138
:101EF80040F20002C4F20202106910F400404FEAF6
:101F0800D03040F20042C4F202024FF40061916105
:101F1800F1E340F60002C4F202024FF020019161A1
:101F280040F20042C4F202024FF00201916140F215
:101F38000002C4F202024FF00201916140F2004235
:101F4800C4F202024FF02001916140F20042C4F253
:101F580002024FF00061916140F60002C4F20202F1
:101F68004FF00401916140F60002C4F202024FF002
:101F78001001916140F20042C4F202024FF00101E7
:101F8800916140F60042C4F202024FF4802191614F
:101F980040F60042C4F202024FF00401916140F69B
:101FA8000002C4F202024FF40031916140F2004293
:101FB800C4F202024FF00061916140F60002C4F2DF
:101FC8000202106910F480704FEA102040F20042BB
:101FD800C4F202024FF4006191618CE340F6000202
:101FE800C4F202024FF02001916140F20042C4F2B3
:101FF80002024FF00201916140F20002C4F20202B3
:102008004FF00201916140F20042C4F202024FF027
:102018002001916140F20042C4F202024FF40061D3
:10202800916140F60002C4F202024FF0040191618E
:1020380040F60002C4F202024FF01001916140F232
:102048000042C4F202024FF48031916140F600422E
:10205800C4F202024FF48021916140F60042C4F2BA
:1020680002024FF00401916140F60002C4F202023C
:102078004FF40031916140F20042C4F202024FF481
:102088008031916140F20002C4F20202106910F43A
:1020980000404FEAD03040F20042C4F202024FF052
:1020A8000101916127E340F60002C4F202024FF0F9
:1020B8002001916140F20042C4F202024FF0020195
:1020C800916140F20002C4F202024FF002019161F4
:1020D80040F20042C4F202024FF02001916140F246
:1020E8000042C4F202024FF40061916140F600021E
:1020F800C4F202024FF00401916140F60002C4F2FA
:1021080002024FF01001916140F20042C4F2020253
:102118004FF48031916140F60042C4F202024FF45C
:102128008021916140F60042C4F202024FF004019E
:10213800916140F60002C4F202024FF4003191614D
:1021480040F20042C4F202024FF48031916140F63D
:102158000002C4F20202106910F480704FEA1020E5
:1021680040F20042C4F202024FF001019161C2E262
:1021780040F60002C4F202024FF02001916140F2E1
:102188000042C4F202024FF40031916140F20002B1
:10219800C4F202024FF00201916140F20042C4F21F
:1021A80002024FF02001916140F20042C4F20202A3
:1021B8004FF40061916140F60002C4F202024FF050
:1021C8000401916140F60002C4F202024FF01001CE
:1021D800916140F20042C4F202024FF001019161A4
:1021E80040F60042C4F202024FF48021916140F6A9
:1021F8000042C4F202024FF00401916140F600026D
:10220800C4F202024FF40031916140F20042C4F27C
:1022180002024FF40031916140F20002C4F202025E
:10222800106910F400404FEAD03040F20042C4F286
:1022380002024FF0020191615DE240F60002C4F231
:1022480002024FF02001916140F20042C4F2020202
:102258004FF40031916140F20002C4F202024FF0E3
:102268000201916140F20042C4F202024FF02001E3
:10227800916140F20042C4F202024FF400619161A0
:1022880040F60002C4F202024FF00401916140F6E8
:102298000002C4F202024FF01001916140F20042C4
:1022A800C4F202024FF00101916140F60042C4F20B
:1022B80002024FF48021916140F60042C4F202020A
:1022C8004FF00401916140F60002C4F202024FF49B
:1022D8000031916140F20042C4F202024FF4003131
:1022E800916140F60002C4F20202106910F4807095
:1022F8004FEA102040F20042C4F202024FF00201FD
:102308009161F8E140F60002C4F202024FF02001A8
:10231800916140F20042C4F202024FF00201916161
:1023280040F20002C4F202024FF00201916140F251
:102338000042C4F202024FF02001916140F20042D3
:10234800C4F202024FF40061916140F60002C4F247
:1023580002024FF00401916140F60002C4F2020249
:102368004FF48011916140F20042C4F202024FF032
:102378000101916140F60042C4F202024FF480214B
:10238800916140F60042C4F202024FF004019161EB
:1023980040F60002C4F202024FF40031916140F6A7
:1023A8000002C4F202024FF48011916140F200026F
:1023B800C4F20202106910F400404FEAD03040F62F
:1023C8000002C4F202024FF01001916193E140F65D
:1023D8000002C4F202024FF02001916140F2004273
:1023E800C4F202024FF00201916140F20002C4F20D
:1023F80002024FF00201916140F20042C4F202026F
:102408004FF02001916140F20042C4F202024FF401
:102418000061916140F60002C4F202024FF004012B
:10242800916140F60002C4F202024FF480119161FA
:1024380040F20042C4F202024FF00101916140F6FD
:102448000042C4F202024FF48021916140F600423A
:10245800C4F202024FF00401916140F60002C4F296
:1024680002024FF40031916140F60002C4F2020208
:102478004FF48011916140F60002C4F20202106923
:1024880010F480704FEA102040F60002C4F20202F5
:102498004FF0100191612EE140F60002C4F20202F1
:1024A8004FF40011916140F20042C4F202024FF071
:1024B8000201916140F20002C4F202024FF00201EF
:1024C800916140F20042C4F202024FF02001916192
:1024D80040F20042C4F202024FF40061916140F6FA
:1024E8000002C4F202024FF00401916140F60002BA
:1024F800C4F202024FF01001916140F20042C4F2AE
:1025080002024FF00101916140F60042C4F202025A
:102518004FF48021916140F60042C4F202024FF06C
:102528000401916140F60002C4F202024FF4003146
:10253800916140F60002C4F202024FF40011916169
:1025480040F20002C4F20202106910F400404FEA9F
:10255800D03040F60002C4F202024FF0200191612F
:10256800C9E040F60002C4F202024FF40011916182
:1025780040F20042C4F202024FF00201916140F2BF
:102588000002C4F202024FF00201916140F20042DF
:10259800C4F202024FF02001916140F20042C4F2FD
:1025A80002024FF40061916140F60002C4F2020297
:1025B8004FF00401916140F60002C4F202024FF0AC
:1025C8001001916140F20042C4F202024FF0010191
:1025D800916140F60042C4F202024FF480219161F9
:1025E80040F60042C4F202024FF00401916140F645
:1025F8000002C4F202024FF40031916140F6000279
:10260800C4F202024FF40011916140F60002C4F2D4
:102618000202106910F480704FEA102040F60002A0
:10262800C4F202024FF02001916164E040F600021A
:10263800C4F202024FF02001916140F20042C4F25C
:1026480002024FF00201916140F20002C4F202025C
:102658004FF40031916140F20042C4F202024FF09F
:102668002001916140F20042C4F202024FF400617D
:10267800916140F60002C4F202024FF00401916138
:1026880040F60002C4F202024FF01001916140F2DC
:102698000042C4F202024FF00101916140F600428B
:1026A800C4F202024FF48021916140F60042C4F264
:1026B80002024FF00401916140F60002C4F20202E6
:1026C8004FF40031916140F20002C4F202024FF46B
:1026D8000031916140F20002C4F20202106910F464
:1026E80000404FEAD03040F20002C4F202024FF03C
:1026F80002019161FFE70FB500F003F8BDE80F4054
:1027080071E06648664B198850F8212001F10101F3
:102718000429ACBF40F20000084618601046FEF7D6
:102728009EBC604B53F82020DFE802F0030A162213
:10273800293500295BD140F2010243F8202056E0F8
:10274800002904D140F2020243F820204FE040F271
:10275800000243F820204AE0002904D140F2030295
:1027680043F8202023E040F2000243F820203EE016
:1027780000293CD040F2040243F8202037E0002929
:1027880004D140F2030243F8202030E040F2050271
:1027980043F820202BE0002904D140F2030243F83B
:1027A800202024E040F2000243F82020FFE781F0D7
:1027B800010140F2000242EA010201BC00F10101FC
:1027C80001B44FEA410142EA01023748026000B50C
:1027D80000F046F95DF804EB09E000B540F20000AE
:1027E80001B4FFF748BA014601BC01B499E701BC3E
:1027F80000F101000D28F3DB5DF804EB704700B52C
:102808002A4A92E80300254B002804D04FF0020220
:1028180043F8221003E04FF0000243F822105DF85D
:1028280004EB704700B5214A92E803001B4B0028CF
:1028380018D0012904BF00220CE0032904BF01229B
:1028480008E0052904BF022204E0072904BF032287
:1028580000E01FE053F822100F29B8BF013143F8F8
:10286800221017E0022904BF00220CE0042904BF4B
:10287800012208E0062904BF022204E0082904BF57
:10288800032200E006E053F822100029C8BF0139EE
:1028980043F822105DF804EB704700009C0000200C
:1028A8005800002060000020CC000020D00000204C
:1028B800224B10B51A6C42F080521A641B6C94B00B
:1028C80003F080530193019B1D4B1A6842F4804228
:1028D8001A601B6803F480430293029B0123089348
:1028E80009934FF480030F93082310934FF4A873B0
:1028F8000224119308A80723139312940E94FDF74A
:1029080091FE0F230393002305934FF4A053052151
:10291800069303A84FF4805307930494FEF704F832
:10292800FEF74AF94FF47A73B0FBF3F0FDF770FD48
:102938000420FDF783FD14B010BD00BF003802402D
:102948000070004008B5FDF7FFFCFFF7B1FFFEF788
:102958009BF9BDE8084000F033B8000010B502202C
:102968000146FEF77CFB0023013342F20F729342CB
:10297800FADD0120064C01462360FEF770FB0023B8
:10298800013342F20F729342FADD2360E7E700BF9A
:10299800980000207FB5084B33F8103001930123CD
:1029A800029303930493054B01A953F82000FDF704
:1029B80051FD07B05DF804FBA02A00081C000020A8
:1029C8001FB5264B1A6B42F001021A631A6B02F00C
:1029D80001020092009A1A6B42F002021A631A6B03
:1029E80002F002020192019A1A6B42F004021A6381
:1029F8001A6B02F004020292029A1A6B42F0080261
:102A08001A631B6B03F0080303930020039BFFF773
:102A1800C1FF0120FFF7BEFF0220FFF7BBFF032025
:102A2800FFF7B8FF0420FFF7B5FF0520FFF7B2FF57
:102A38000620FFF7AFFF0720FFF7ACFF0820FFF7DE
:102A4800A9FF0920FFF7A6FF0A20FFF7A3FF0B2025
:102A5800FFF7A0FF05B05DF804FB00BF0038024097
:102A6800074A1368132B07D8591C1160054A0168D7
:102A780042F82310002070474FF0FF30704700BF26
:102A8800C8000020D000002000000000010203045C
:102A980001020304060708092000020002002000C2
:102AA80000080400100001000200040010000008E3
:102AB800540000200000000000000000000000009A
:102AC80001020304060708090024F4000008024074
:102AD80000040240000002400004024000040240DA
:102AE80000080240000802400004024000080240BA
:0C2AF800000C02400004024000080240F4
:040000050800018965
:00000001FF
